{
  "contractName": "Concatenate",
  "abi": [
    {
      "constant": true,
      "inputs": [
        {
          "name": "_s",
          "type": "string"
        },
        {
          "name": "_t",
          "type": "string"
        }
      ],
      "name": "concatWithoutImport",
      "outputs": [
        {
          "name": "",
          "type": "string"
        }
      ],
      "payable": false,
      "stateMutability": "pure",
      "type": "function"
    },
    {
      "constant": false,
      "inputs": [
        {
          "name": "s",
          "type": "string"
        },
        {
          "name": "t",
          "type": "string"
        }
      ],
      "name": "concatWithImport",
      "outputs": [
        {
          "name": "",
          "type": "string"
        }
      ],
      "payable": false,
      "stateMutability": "nonpayable",
      "type": "function"
    }
  ],
  "bytecode": "0x608060405234801561001057600080fd5b506104a6806100206000396000f30060806040526004361061004c576000357c0100000000000000000000000000000000000000000000000000000000900463ffffffff1680631eff86461461005157806334d1460b14610179575b600080fd5b34801561005d57600080fd5b506100fe600480360381019080803590602001908201803590602001908080601f0160208091040260200160405190810160405280939291908181526020018383808284378201915050505050509192919290803590602001908201803590602001908080601f01602080910402602001604051908101604052809392919081815260200183838082843782019150505050505091929192905050506102a1565b6040518080602001828103825283818151815260200191508051906020019080838360005b8381101561013e578082015181840152602081019050610123565b50505050905090810190601f16801561016b5780820380516001836020036101000a031916815260200191505b509250505060405180910390f35b34801561018557600080fd5b50610226600480360381019080803590602001908201803590602001908080601f0160208091040260200160405190810160405280939291908181526020018383808284378201915050505050509192919290803590602001908201803590602001908080601f01602080910402602001604051908101604052809392919081815260200183838082843782019150505050505091929192905050506102a9565b6040518080602001828103825283818151815260200191508051906020019080838360005b8381101561026657808201518184015260208101905061024b565b50505050905090810190601f1680156102935780820380516001836020036101000a031916815260200191505b509250505060405180910390f35b606092915050565b606080606080606060008088955087945084518651016040519080825280601f01601f1916602001820160405280156102f15781602001602082028038833980820191505090505b50935083925060009050600091505b85518210156103b357858281518110151561031757fe5b9060200101517f010000000000000000000000000000000000000000000000000000000000000090047f010000000000000000000000000000000000000000000000000000000000000002838280600101935081518110151561037657fe5b9060200101907effffffffffffffffffffffffffffffffffffffffffffffffffffffffffffff1916908160001a9053508180600101925050610300565b600091505b845182101561046b5784828151811015156103cf57fe5b9060200101517f010000000000000000000000000000000000000000000000000000000000000090047f010000000000000000000000000000000000000000000000000000000000000002838280600101935081518110151561042e57fe5b9060200101907effffffffffffffffffffffffffffffffffffffffffffffffffffffffffffff1916908160001a90535081806001019250506103b8565b829650505050505050929150505600a165627a7a723058200dd486859ab92cc7161c6e8cafad8bb252829cf61d191f07fc47f7e6efee415c0029",
  "source": "pragma solidity 0.4.24;\n\n\ncontract Concatenate {\n    function concatWithoutImport(string _s, string _t) public pure returns (string) {\n        bytes memory b_s = bytes(_s);\n        bytes memory b_t = bytes(_t);\n        \n        string memory concat = new string(b_s.length+b_t.length);\n        bytes memory b_concat = bytes(concat);\n        \n        uint i;\n        uint j = 0;\n        for(i = 0;i<b_s.length;i++)\n            b_concat[j++] = b_s[i];\n        for(i = 0;i<b_t.length;i++)\n            b_concat[j++] = b_t[i];\n\n        return string(b_concat);\n    }\n\n    /* BONUS */\n    function concatWithImport(string s, string t) public returns (string) {\n    }\n}\n",
  "sourcePath": "/home/rand0m/berkley/sp18-lab02/Intro to Solidity/contracts/concatenate.sol",
  "compiler": {
    "name": "solc",
    "version": "0.4.24+commit.e67f0147.Emscripten.clang"
  },
  "schemaVersion": "2.0.0",
  "updatedAt": "2018-06-19T04:50:39.124Z"
}