{
  "contractName": "Fibonacci",
  "abi": [
    {
      "constant": true,
      "inputs": [
        {
          "name": "n",
          "type": "uint256"
        }
      ],
      "name": "fibRecur",
      "outputs": [
        {
          "name": "",
          "type": "uint256"
        }
      ],
      "payable": false,
      "stateMutability": "pure",
      "type": "function"
    },
    {
      "constant": true,
      "inputs": [
        {
          "name": "n",
          "type": "uint256"
        }
      ],
      "name": "fibIter",
      "outputs": [
        {
          "name": "",
          "type": "uint256"
        }
      ],
      "payable": false,
      "stateMutability": "pure",
      "type": "function"
    }
  ],
  "bytecode": "0x608060405234801561001057600080fd5b50610182806100206000396000f30060806040526004361061004c576000357c0100000000000000000000000000000000000000000000000000000000900463ffffffff168063c840476e14610051578063dfe5adc114610092575b600080fd5b34801561005d57600080fd5b5061007c600480360381019080803590602001909291905050506100d3565b6040518082815260200191505060405180910390f35b34801561009e57600080fd5b506100bd6004803603810190808035906020019092919050505061011a565b6040518082815260200191505060405180910390f35b600060018214156100e75760019050610115565b60008214156100f95760009050610115565b610105600283036100d3565b610111600184036100d3565b0190505b919050565b60008060008060009250600191505b600185111561014b578290508192508181019150848060019003955050610129565b8193505050509190505600a165627a7a72305820cd0cd7aa3dfaa0f44e9536673ad0e4a116bf13b868216bc7b6dc5f0d673cee5c0029",
  "source": "pragma solidity 0.4.24;\n\n\ncontract Fibonacci {\n    /* Carry out calculations to find the nth Fibonacci number */\n    function fibRecur(uint n) public pure returns (uint) {\n        if(n==1)\n            return 1;\n        if(n==0)\n            return 0;\n        return fibRecur(n-1)+fibRecur(n-2);\n    }\n\n    /* Carry out calculations to find the nth Fibonacci number */\n    function fibIter(uint n) public pure returns (uint) {\n        uint i = 0;\n        uint j = 1;\n        uint tmp;\n        for (n;n>1;n--) {\n            tmp = i;\n            i = j;\n            j = tmp+j;\n        }\n        return j;\n    }\n}\n",
  "sourcePath": "/home/rand0m/berkley/sp18-lab02/Intro to Solidity/contracts/fibonacci.sol",
  "compiler": {
    "name": "solc",
    "version": "0.4.24+commit.e67f0147.Emscripten.clang"
  },
  "schemaVersion": "2.0.0",
  "updatedAt": "2018-06-19T04:50:39.124Z"
}