{
  "contractName": "XOR",
  "abi": [
    {
      "constant": true,
      "inputs": [
        {
          "name": "a",
          "type": "uint256"
        },
        {
          "name": "b",
          "type": "uint256"
        }
      ],
      "name": "xor",
      "outputs": [
        {
          "name": "",
          "type": "uint256"
        }
      ],
      "payable": false,
      "stateMutability": "pure",
      "type": "function"
    },
    {
      "constant": true,
      "inputs": [
        {
          "name": "a",
          "type": "string"
        },
        {
          "name": "b",
          "type": "string"
        }
      ],
      "name": "sxor",
      "outputs": [
        {
          "name": "",
          "type": "string"
        }
      ],
      "payable": false,
      "stateMutability": "pure",
      "type": "function"
    }
  ],
  "bytecode": "0x608060405234801561001057600080fd5b50610643806100206000396000f30060806040526004361061004c576000357c0100000000000000000000000000000000000000000000000000000000900463ffffffff1680639ed41ba114610051578063a88138b51461009c575b600080fd5b34801561005d57600080fd5b5061008660048036038101908080359060200190929190803590602001909291905050506101c4565b6040518082815260200191505060405180910390f35b3480156100a857600080fd5b50610149600480360381019080803590602001908201803590602001908080601f0160208091040260200160405190810160405280939291908181526020018383808284378201915050505050509192919290803590602001908201803590602001908080601f0160208091040260200160405190810160405280939291908181526020018383808284378201915050505050509192919290505050610202565b6040518080602001828103825283818151815260200191508051906020019080838360005b8381101561018957808201518184015260208101905061016e565b50505050905090810190601f1680156101b65780820380516001836020036101000a031916815260200191505b509250505060405180910390f35b600060018314806101d55750600083145b80156101ec575060008214806101eb5750600182145b5b15156101f757600080fd5b818318905092915050565b606080606080606060008794508693508351855114151561022257600080fd5b84516040519080825280601f01601f1916602001820160405280156102565781602001602082028038833980820191505090505b509250829150600090505b84518110156106095760017f010000000000000000000000000000000000000000000000000000000000000002858281518110151561029c57fe5b9060200101517f010000000000000000000000000000000000000000000000000000000000000090047f0100000000000000000000000000000000000000000000000000000000000000027effffffffffffffffffffffffffffffffffffffffffffffffffffffffffffff191614806103b1575060007f010000000000000000000000000000000000000000000000000000000000000002858281518110151561034257fe5b9060200101517f010000000000000000000000000000000000000000000000000000000000000090047f0100000000000000000000000000000000000000000000000000000000000000027effffffffffffffffffffffffffffffffffffffffffffffffffffffffffffff1916145b8015610500575060007f01000000000000000000000000000000000000000000000000000000000000000284828151811015156103ea57fe5b9060200101517f010000000000000000000000000000000000000000000000000000000000000090047f0100000000000000000000000000000000000000000000000000000000000000027effffffffffffffffffffffffffffffffffffffffffffffffffffffffffffff191614806104ff575060017f010000000000000000000000000000000000000000000000000000000000000002848281518110151561049057fe5b9060200101517f010000000000000000000000000000000000000000000000000000000000000090047f0100000000000000000000000000000000000000000000000000000000000000027effffffffffffffffffffffffffffffffffffffffffffffffffffffffffffff1916145b5b151561050b57600080fd5b838181518110151561051957fe5b9060200101517f010000000000000000000000000000000000000000000000000000000000000090047f010000000000000000000000000000000000000000000000000000000000000002858281518110151561057257fe5b9060200101517f010000000000000000000000000000000000000000000000000000000000000090047f0100000000000000000000000000000000000000000000000000000000000000021882828151811015156105cc57fe5b9060200101907effffffffffffffffffffffffffffffffffffffffffffffffffffffffffffff1916908160001a9053508080600101915050610261565b8195505050505050929150505600a165627a7a72305820d135b1db7ff87daf3f7eecab204821788e1a4c5f80d6f47556ce73f002aaec3a0029",
  "source": "pragma solidity 0.4.24;\n\n\ncontract XOR {\n    function xor(uint a, uint b) public pure returns (uint) {\n        require((a==1 || a==0) && (b==0 || b==1));\n        return a^b;\n    }\n\n    function sxor(string a, string b) public pure returns(string){\n        bytes memory b_a = bytes(a);\n        bytes memory b_b = bytes(b);\n        require (b_a.length == b_b.length);\n        \n        string memory tmp = new string(b_a.length);\n        bytes memory xored = bytes(tmp);\n        for(uint i = 0; i<b_a.length;i++) {\n            require((b_a[i]==1 || b_a[i]==0) && (b_b[i]==0 || b_b[i]==1));\n            xored[i] = b_a[i]^b_b[i];\n        }\n        \n        return string(xored);\n    }\n}\n",
  "sourcePath": "/home/rand0m/berkley/sp18-lab02/Intro to Solidity/contracts/xor.sol",
  "compiler": {
    "name": "solc",
    "version": "0.4.24+commit.e67f0147.Emscripten.clang"
  },
  "schemaVersion": "2.0.0",
  "updatedAt": "2018-06-19T04:50:42.394Z"
}